:0400000095EF00F088
:10000800FACF42F0FBCF43F0E9CF44F0EACF45F016
:10001800E1CF46F0E2CF47F0D9CF48F0DACF49F048
:10002800F3CF4AF0F4CF4BF0F6CF4CF0F7CF4DF0CA
:10003800F8CF4EF0F5CF4FF09DB09EA04ED09E90D9
:10004800F00E3F6E5F0E3E6E7BEC09F0010E1F6EE8
:10005800392A0A0E3918D8A430D0000E396E010E8C
:100068001C6E362A0A0E3618D8A427D0000E366E13
:10007800010E1B6E352A0A0E3518D8A41ED0000EA4
:10008800356E010E206E3A2A3C0E3A18D8A415D0C7
:10009800000E3A6E010E1E6E382A3C0E3818D8A48F
:1000A8000CD0000E386E010E1D6E372A180E371848
:1000B800D8A403D0000E376E00D0034A042A055096
:1000C80003180BE106500418D8A407D0000E046EDC
:1000D800000E036E010E1A6E00D09EBA9DAA04D0BF
:1000E800AECF01F0026A00D04FC0F5FF4EC0F8FF56
:1000F8004DC0F7FF4CC0F6FF4BC0F4FF4AC0F3FFFA
:1001080049C0DAFF48C0D9FF47C0E2FF46C0E1FF57
:1001180045C0EAFF44C0E9FF43C0FBFF42C0FAFF05
:10012800110016EF09F05CD10BC0D0F0F00E000101
:10013800D017D8A449D0630E0F6404D0000E0A6EFD
:10014800000E1BD00FC0C8F00001C96B000E0001E3
:10015800CB6F0A0ECA6F62EC07F00001C8510A6E35
:100168000FC0C8F00001C96B000E0001CB6F0A0E6A
:10017800CA6FCAEC07F00001C851076E00D0630EC1
:10018800106405D0000E086E000E0D6E120010C02F
:10019800C8F00001C96B000E0001CB6F0A0ECA6FD0
:1001A80062EC07F00001C851086E10C0C8F00001E9
:1001B800C96B000E0001CB6F0A0ECA6FCAEC07F0BC
:1001C8000001C8510D6E12000F50F00B0A6E0A386C
:1001D8000F0B0A6E0F500F0B076E1050F00B086EC6
:1001E80008380F0B086E10500F0B0D6E12000BC065
:1001F800D0F0F00E0001D017D8A424D0090E136453
:1002080003D0000E0A6E03D013C00AF000D0090E06
:10021800116403D0000E076E03D011C007F000D0A0
:10022800090E126403D0000E086E03D012C008F045
:1002380000D0090E146403D0000E0D6E120014C015
:100248000DF0120013C00AF011C007F012C008F038
:1002580014C00DF012000BC0D0F0F00E0001D01742
:10026800D8A473D00F0E015C270E0258D8B0120024
:1002780001C0D3F002C0D4F0D3C0C8F0D4C0C9F0D4
:10028800000E0001CB6F0A0ECA6FB6EC08F0000131
:10029800C8510D6ED3C0C8F0D4C0C9F0000E00011B
:1002A800CB6F0A0ECA6F75EC08F0C8C0D3F0C9C08E
:1002B800D4F0D3C0C8F0D4C0C9F0000E0001CB6F91
:1002C8000A0ECA6FB6EC08F00001C851086ED3C018
:1002D800C8F0D4C0C9F0000E0001CB6F0A0ECA6F77
:1002E80075EC08F0C8C0D3F0C9C0D4F0D3C0C8F0CA
:1002F800D4C0C9F0000E0001CB6F0A0ECA6FB6EC6D
:1003080008F00001C851076ED3C0C8F0D4C0C9F0C6
:10031800000E0001CB6F0A0ECA6F75EC08F0C8C05A
:10032800D3F0C9C0D4F0D3C00AF0D3C0C8F0D4C049
:10033800C9F0000E0001CB6F0A0ECA6F75EC08F009
:10034800C8C0D3F0C9C0D4F0120001C0D3F002C0B5
:10035800D4F00001D3510F0B0D6ED3C0D0F0D4C030
:10036800D1F0040E0001D26F0001D890D133D03300
:100378000001D22FF9D7D0C0D3F0D1C0D4F00001FA
:10038800D3510F0B086ED3C0D0F0D4C0D1F0040EF7
:100398000001D26F0001D890D133D0330001D22FA1
:1003A800F9D7D0C0D3F0D1C0D4F00001D3510F0B8E
:1003B800076ED3C0D0F0D4C0D1F0040E0001D26FC4
:1003C8000001D890D133D0330001D22FF9D7D0C053
:1003D800D3F0D1C0D4F00001D3510F0B0A6E120034
:1003E8000E50010AD8B4A0D6030AD8B400D733D720
:1003F8001200F00ED36E3F0E926E000E936E000E3A
:10040800946E0F0E956E000E966EF28EF28C000EA4
:10041800806E000E816E000E826E000E836E000EDE
:10042800846E8B8A8B8C8B8EF00E0001C96F5F0EE9
:10043800C86F72EC09F0C50E30EC09F0000E0E6EB4
:10044800010E0B6E010E0C6EDF0E5FEC09F0F29AD6
:10045800000E7E6EF28C000E2A6E8B808B9AD00E68
:100468000001D56FCA0EE82EFED7D52FFCD78B908A
:100478008B8AD00E0001D56FCA0EE82EFED7D52F75
:10048800FCD7D00E0001D56FCA0EE82EFED7D52FA7
:10049800FCD7D00E0001D56FCA0EE82EFED7D52F97
:1004A800FCD78B808B9CD00E0001D56FCA0EE82E2E
:1004B800FED7D52FFCD7D00E0001D56FCA0EE82E77
:1004C800FED7D52FFCD78B908B8CD00E0001D56F23
:1004D800CA0EE82EFED7D52FFCD7D00E0001D56F57
:1004E800CA0EE82EFED7D52FFCD7D00E0001D56F47
:1004F800CA0EE82EFED7D52FFCD78B808B9ED00E48
:100508000001D56FCA0EE82EFED7D52FFCD7D00E26
:100518000001D56FCA0EE82EFED7D52FFCD7D00E16
:100528000001D56FCA0EE82EFED7D52FFCD7D00E06
:100538000001D56FCA0EE82EFED7D52FFCD78B90B9
:100548008B8E6DD05FEC05F01CEC04F01504D8A47C
:1005580038D0000E156E0A0E3018D8A415D0010E2A
:100568002A6E010E256E010E246E010E236E010EF9
:10057800226E000E046E000E036E000E1A6E010E3F
:10058800066EF40E056E00D00B0E3018D8A419D0E4
:10059800020E2A6E000E336E0CD00ED03350010DB1
:1005A800600EF324D96E000EF420DA6E320EDF6E80
:1005B800332A630E3364F2D78B98898E000E846ECB
:1005C80000D0020E3818D8A42AD0FF0028D023EC77
:1005D80003F07CEC06F0C0EC04F021D0FBEC05F055
:1005E80024EC08F01CD05FEC05F01CEC04F01504BA
:1005F800D8A415D0000E156E0A0E306007D030C092
:10060800ADFF00D0ACB202D0FDD700D00C0E301830
:10061800D8A405D0000E026E000E016E00D02A503C
:10062800000AD8B48FD7010AD8B4D1D7030AD8B4EE
:10063800D5D7010AD8B4D7D7F2D795EF00F01A0466
:10064800D8A41200000E1A6EE0D0020E2F6E00D051
:10065800D6CFC8F00001C96B000E0001CB6F0A0E9F
:10066800CA6FCAEC07F00001C85102D02B50F60F30
:100678002B6E0A0E2B60FAD700D02B502C18D8B44A
:10068800E7D72BC02CF02BC00AF0140E076E140EFF
:10069800086E140E0D6E1200030E2F6E140E0A6EE5
:1006A8002BC007F0140E086E140E0D6E8B8C8B8EFB
:1006B8001200040E2F6E140E0A6E140E076E2BC055
:1006C80008F0140E0D6E1200050E2F6E140E0A6E31
:1006D800140E076E140E086E2BC00DF0000E156E6A
:1006E8001200010E2F6E900E055C010E0658D8A060
:1006F80002D0CE0E0FD02D0E055C010E0658D8A0E4
:1007080002D0F10E07D0065004E1970E055CD8A080
:1007180007D0F60E0524056EFF0E0620066E00D0E3
:100728001504D8A409D02B503018D8A405D08B9C18
:100738002E2A120001D012008B9E2504D8A403D0C3
:10074800000E256E12002404D8A403D0000E246ED7
:1007580012002304D8A403D0000E236E1200220432
:10076800D8A403D0000E226E12008B80D00E000198
:10077800CE6FCA0EE82EFED7CE2FFCD7D00E0001C2
:10078800CE6FCA0EE82EFED7CE2FFCD7D00E0001B2
:10079800CE6FCA0EE82EFED7CE2FFCD7D00E0001A2
:1007A800CE6FCA0EE82EFED7CE2FFCD7D00E000192
:1007B800CE6FCA0EE82EFED7CE2FFCD7D00E000182
:1007C800CE6FCA0EE82EFED7CE2FFCD7D00E000172
:1007D800CE6FCA0EE82EFED7CE2FFCD7D00E000162
:1007E800CE6FCA0EE82EFED7CE2FFCD78B90000E08
:1007F8002A6E2EC001F0026A000E2E6E000E386EB0
:100808008B8E1200010E2F6E12002F50010AD8B4E1
:100818001CD7030AD8B440D7010AD8B44AD7070A64
:10082800D8B452D7010AD8B45CD7ECD7120012005A
:100838001C04D8A41200000E1C6E3D2A040E3D189C
:10084800D8A41200000E3D6E87D0020E506E83A60B
:1008580005D0010E306E010E156E00D083A405D0B0
:10086800020E306E010E156E00D083A205D0030E65
:10087800306E010E156E00D083A005D00A0E306EC2
:10088800010E156E00D08C9E8C8C1200030E506EDB
:1008980083A605D0040E306E010E156E00D083A419
:1008A80005D0050E306E010E156E00D083A205D05E
:1008B800060E306E010E156E00D083A005D00B0E0B
:1008C800306E010E156E00D08C9C8C8A1200040EBE
:1008D800506E83A605D0070E306E010E156E00D03F
:1008E80083A405D0080E306E010E156E00D083A2C9
:1008F80005D0090E306E010E156E00D083A005D00C
:100908000C0E306E010E156E00D08C9A8C88120079
:10091800010E506E83A605D00F0E306E010E156EB7
:1009280000D083A405D0000E306E010E156E00D0E5
:1009380083A205D00E0E306E010E156E00D083A076
:1009480005D00D0E306E010E156E00D08C988C8E71
:100958001200010E506E12005050010AD8B475D71B
:10096800030AD8B493D7010AD8B4B1D7070AD8B4C0
:10097800CFD7EFD712001200312A320E3118D8A47F
:100988001200000E316E87D0020E506E83A605D07D
:10099800010E306E010E156E00D083A405D0020E34
:1009A800306E010E156E00D083A205D0030E306E96
:1009B800010E156E00D083A005D00A0E306E010E10
:1009C800156E00D08C9E8C8C1200030E506E83A680
:1009D80005D0040E306E010E156E00D083A405D02C
:1009E800050E306E010E156E00D083A205D0060EDE
:1009F800306E010E156E00D083A005D00B0E306E40
:100A0800010E156E00D08C9C8C8A1200040E506E5C
:100A180083A605D0070E306E010E156E00D083A494
:100A280005D0080E306E010E156E00D083A205D0D9
:100A3800090E306E010E156E00D083A005D00C0E85
:100A4800306E010E156E00D08C9A8C881200010E43
:100A5800506E83A605D00F0E306E010E156E00D0B5
:100A680083A405D0000E306E010E156E00D083A24F
:100A780005D00E0E306E010E156E00D083A005D085
:100A88000D0E306E010E156E00D08C988C8E1200F3
:100A9800010E506E12005050010AD8B475D7030ADF
:100AA800D8B493D7010AD8B4B1D7070AD8B4CFD7E6
:100AB800EFD7120012001F04D8A4120097EC00F020
:100AC800000E1F6E3C2A040E3C18D8A41200000E1B
:100AD8003C6E7AD0020E346E8B980D50F2EC06F014
:100AE800898E1200030E346E899E0850D8A409D04E
:100AF8000750D8A406D00A50D8A403D0ECEC08F0CC
:100B080004D00850F2EC06F000D0040E846E1200F7
:100B1800040E346E000E846E0750D8A406D00A5016
:100B2800D8A403D0ECEC08F004D00750F2EC06F09F
:100B380000D0020E846E1200050E346E000E846E14
:100B48000A50D8A403D0ECEC08F004D00A50F2EC18
:100B580006F000D0010E846E1200010E346E000EF5
:100B6800846E0C04D8A403D009C081FF28D022B019
:100B780002D08A9001D08A8023B002D08A9201D014
:100B88008A8224B002D08A9401D08A8425B002D007
:100B98008A9601D08A8626B002D08A9801D08A889F
:100BA80027B002D08A9A01D08A8A28B002D08A9CBB
:100BB80001D08A8C29B002D08A9E01D08A8E8B8877
:100BC8001200010E346E12003450010AD8B482D7D4
:100BD800030AD8B487D7010AD8B49AD7070AD8B471
:100BE800ABD7010AD8B4B9D7ECD712001200000E5F
:100BF800336E26D03350010D600EF324D96E000EEB
:100C0800F420DA6EDF50F2EC06F0898E8B80000E4D
:100C18000001C96F3C0EC86F4AEC09F08B90010EB9
:100C28000001C96F900EC86F4AEC09F0899E010E49
:100C38000001C96F2C0EC86F4AEC09F0332A00D0A6
:100C48003350010D600EF324D96E000EF420DA6ED5
:100C5800320EDE18D8B402D0CDD700D0D6CFC8F027
:100C68000001C96B000E0001CB6F0A0ECA6FCAECF7
:100C780007F00001C85102D02B50F60F2B6E0A0E58
:100C88002B60FAD700D02B502C18D8B4E7D72BC03C
:100C98002CF03350010D600EF324D96E000EF420B1
:100CA800DA6E2BC0DFFF3350010D600EF324D96ECE
:100CB800000EF420DA6EDF50F2EC06F0898E8B809D
:100CC800010E0001C96F900EC86F4AEC09F08B90B5
:100CD800000E0001C96F640EC86F4AEC09F0899EC6
:100CE800010E0001C96F2C0EC86F4AEC09F0120002
:100CF8001F04D8A41200000E1F6E3C2A040E3C18D4
:100D0800D8A41200000E3C6E56D0020E346E8B989A
:100D18000D50F2EC06F0898E1200030E346E899E97
:100D28000850F2EC06F0040E846E1200040E346EC5
:100D3800000E846E0750F2EC06F0020E846E12006C
:100D4800050E346E000E846E0A50F2EC06F0010EA9
:100D5800846E1200010E346E000E846E22B002D032
:100D68008A9001D08A8023B002D08A9201D08A82E8
:100D780024B002D08A9401D08A8425B002D08A9601
:100D880001D08A8626B002D08A9801D08A8827B0F6
:100D980002D08A9A01D08A8A28B002D08A9C01D0CF
:100DA8008A8C29B002D08A9E01D08A8E8B88120044
:100DB800010E346E12003450010AD8B4A6D7030AC3
:100DC800D8B4ABD7010AD8B4B1D7070AD8B4B8D7C2
:100DD800010AD8B4BFD7ECD7120012000001C86FBF
:100DE80036D0DE0E816E1200880E816E1200B60EAD
:100DF800816E1200BA0E816E1200E80E816E12002A
:100E08007A0E816E12007E0E816E1200980E816E2F
:100E18001200FE0E816E1200F80E816E1200FC0E9A
:100E2800816E12006E0E816E1200560E816E1200D7
:100E3800AE0E816E1200760E816E1200740E816EF7
:100E48001200000E816E1200000E816E1200000169
:100E5800C851000AD8B4C5D7010AD8B4C5D7030AFF
:100E6800D8B4C5D7010AD8B4C5D7070AD8B4C5D7E6
:100E7800010AD8B4C5D7030AD8B4C5D7010AD8B46B
:100E8800C5D70F0AD8B4C5D7010AD8B4C5D7030A3D
:100E9800D8B4C5D7010AD8B4C5D7070AD8B4C5D7B6
:100EA800010AD8B4C5D7030AD8B4C5D7010AD8B43B
:100EB800C5D71B0AD8B4C5D7C7D71200000E000182
:100EC800CD6F0001CBAF09D00001CA6DCB1FD8B0E0
:100ED800CB2B010E0001CD6F00D00001C9AF09D0A6
:100EE8000001C86DC91FD8B0C92B010E0001CD1B68
:100EF80000D0000E0001CF6F000ECE6F0001CA5166
:100F08000001CB11D8B431D0010E0001CC6F07D04D
:100F18000001D890CA37CB370001CC2B00D0000194
:100F2800CBBF02D0F5D700D00001D890CE37CF374D
:100F38000001CA510001C85D0001CB510001C95927
:100F4800D8A00BD00001CA510001C85F0001CB51E5
:100F58000001C95B0001CE8100D00001D890CB33DD
:100F6800CA330001CC2FE0D700D00001CD510001D9
:100F7800D8B406D00001CE6DCF1FD8B0CF2B00D08B
:100F8800CEC0C8F0CFC0C9F012001200000E000198
:100F9800CD6F0001C9AF09D00001C86DC91FD8B015
:100FA800C92B010E0001CD6F00D00001CBAF06D0D8
:100FB8000001CA6DCB1FD8B0CB2B00D00001CA519D
:100FC8000001CB11D8B42BD0010E0001CC6F07D093
:100FD8000001D890CA37CB370001CC2B00D00001D4
:100FE800CBBF02D0F5D700D00001CA510001C85DBF
:100FF8000001CB510001C959D8A009D00001CA513C
:101008000001C85F0001CB510001C95B00D000019D
:10101800D890CB33CA330001CC2FE6D700D00001DB
:10102800CD510001D8B406D00001C86DC91FD8B091
:10103800C92B00D0C8C0C8F0C9C0C9F0120012003E
:10104800000E336E36D003D01CEC04F000D01550DF
:10105800D8B4FAD7000E156E3350010D600EF32484
:10106800D96E000EF420DA6E3050DE18D8A40BD0FA
:10107800332A8B9C010E0001C96F2C0EC86F4AECF5
:1010880009F08B8C16D08B9E8B80030E0001C96FE4
:10109800E80EC86F4AEC09F08B8E000E2A6E2EC03F
:1010A80001F0026A000E2E6E8B90000E386E120050
:1010B80000D03350010D600EF324D96E000EF420D9
:1010C800DA6E320EDE18D8A4C2D78B9C020E00014D
:1010D800C96F580EC86F4AEC09F08B8C8B902E2A7A
:1010E8001200000E0001CE6F000ECD6F0001CA5134
:1010F8000001CB11D8B431D0010E0001CC6F07D05C
:101108000001D890CA37CB370001CC2B00D00001A2
:10111800CBBF02D0F5D700D00001D890CD37CE375D
:101128000001CA510001C85D0001CB510001C95935
:10113800D8A00BD00001CA510001C85F0001CB51F3
:101148000001C95B0001CD8100D00001D890CB33EC
:10115800CA330001CC2FE0D700D0CDC0C8F0CEC034
:10116800C9F012000001CA510001CB11D8B42BD02C
:10117800010E0001CC6F07D00001D890CA37CB37D9
:101188000001CC2B00D00001CBBF02D0F5D700D096
:101198000001CA510001C85D0001CB510001C959C5
:1011A800D8A009D00001CA510001C85F0001CB5185
:1011B8000001C95B00D00001D890CB33CA330001CD
:1011C800CC2FE6D700D0C8C0C8F0C9C0C9F01200FB
:1011D8000FD0010E816E1200020E816E1200200ED9
:1011E800816E1200100E816E1200000E816E1200C8
:1011F8000B500F0B0001C86FC96B0001C951000AE1
:10120800D8A4F3D70001C851010AD8B4E2D7030A19
:10121800D8B4E2D7010AD8B4E2D7070AD8B4E2D7DB
:10122800E4D7120000EE60F0680EEE6AE806FDE111
:1012380000EE01F03D0EEE6AE806FDE1080EF66EDE
:10124800130EF76E000EF86E0900F5CF50F0000E81
:10125800F86E0001FDEF01F00001C86F0001C851F0
:101268007E0BCD6E0001C8AD02D0CD8E02D0CD9ED2
:1012780000D0000ECF6E000ECE6E9E900001C8AF5B
:1012880002D09D8001D09D90CD8012000DD0060E19
:101298000001CA6F300EE82EFED7CA2FFCD700D047
:1012A8000001C807D8A0C9070001C8510001C91129
:1012B800D8A4EDD712000001C86F0001C8517F0BF8
:1012C800D56E000ED76E000ED66EF2940001C8AF30
:1012D80002D0F28A01D0F29AD58E1200C8C0CAF0A4
:1012E800C9C0CBF0CBC0CFFFCAC0CEFF12003EC0F2
:1012F80040F03FC041F041C0CFFF40C0CEFF1200D8
:021308000100E2
:020000040020DA
:08000000FFFFFFFFFFFFFFFF00
:020000040030CA
:0E000000FF081F1EFF0981FF0FC00FE00F4019
:00000001FF
